{
  "contractName": "Voting",
  "abi": [
    {
      "anonymous": false,
      "inputs": [
        {
          "indexed": true,
          "internalType": "address",
          "name": "previousOwner",
          "type": "address"
        },
        {
          "indexed": true,
          "internalType": "address",
          "name": "newOwner",
          "type": "address"
        }
      ],
      "name": "OwnershipTransferred",
      "type": "event"
    },
    {
      "anonymous": false,
      "inputs": [
        {
          "indexed": false,
          "internalType": "uint256",
          "name": "proposalId",
          "type": "uint256"
        }
      ],
      "name": "ProposalRegistered",
      "type": "event"
    },
    {
      "anonymous": false,
      "inputs": [
        {
          "indexed": false,
          "internalType": "address",
          "name": "voter",
          "type": "address"
        },
        {
          "indexed": false,
          "internalType": "uint256",
          "name": "proposalId",
          "type": "uint256"
        }
      ],
      "name": "Voted",
      "type": "event"
    },
    {
      "anonymous": false,
      "inputs": [
        {
          "indexed": false,
          "internalType": "address",
          "name": "voterAddress",
          "type": "address"
        }
      ],
      "name": "VoterRegistered",
      "type": "event"
    },
    {
      "anonymous": false,
      "inputs": [
        {
          "indexed": false,
          "internalType": "enum Voting.WorkflowStatus",
          "name": "previousStatus",
          "type": "uint8"
        },
        {
          "indexed": false,
          "internalType": "enum Voting.WorkflowStatus",
          "name": "newStatus",
          "type": "uint8"
        }
      ],
      "name": "WorkflowStatusChange",
      "type": "event"
    },
    {
      "inputs": [],
      "name": "owner",
      "outputs": [
        {
          "internalType": "address",
          "name": "",
          "type": "address"
        }
      ],
      "stateMutability": "view",
      "type": "function"
    },
    {
      "inputs": [
        {
          "internalType": "uint256",
          "name": "",
          "type": "uint256"
        }
      ],
      "name": "proposals",
      "outputs": [
        {
          "internalType": "string",
          "name": "description",
          "type": "string"
        },
        {
          "internalType": "uint256",
          "name": "voteCount",
          "type": "uint256"
        }
      ],
      "stateMutability": "view",
      "type": "function"
    },
    {
      "inputs": [],
      "name": "renounceOwnership",
      "outputs": [],
      "stateMutability": "nonpayable",
      "type": "function"
    },
    {
      "inputs": [
        {
          "internalType": "address",
          "name": "newOwner",
          "type": "address"
        }
      ],
      "name": "transferOwnership",
      "outputs": [],
      "stateMutability": "nonpayable",
      "type": "function"
    },
    {
      "inputs": [
        {
          "internalType": "address",
          "name": "",
          "type": "address"
        }
      ],
      "name": "voters",
      "outputs": [
        {
          "internalType": "bool",
          "name": "isRegistered",
          "type": "bool"
        },
        {
          "internalType": "bool",
          "name": "hasVoted",
          "type": "bool"
        },
        {
          "internalType": "uint256",
          "name": "votedProposalId",
          "type": "uint256"
        }
      ],
      "stateMutability": "view",
      "type": "function"
    },
    {
      "inputs": [],
      "name": "winningProposalId",
      "outputs": [
        {
          "internalType": "uint256",
          "name": "",
          "type": "uint256"
        }
      ],
      "stateMutability": "view",
      "type": "function"
    },
    {
      "inputs": [],
      "name": "getVotingStatus",
      "outputs": [
        {
          "internalType": "string",
          "name": "",
          "type": "string"
        }
      ],
      "stateMutability": "view",
      "type": "function"
    },
    {
      "inputs": [],
      "name": "getWinner",
      "outputs": [
        {
          "components": [
            {
              "internalType": "string",
              "name": "description",
              "type": "string"
            },
            {
              "internalType": "uint256",
              "name": "voteCount",
              "type": "uint256"
            }
          ],
          "internalType": "struct Voting.Proposal",
          "name": "",
          "type": "tuple"
        }
      ],
      "stateMutability": "view",
      "type": "function"
    },
    {
      "inputs": [],
      "name": "getProposalCount",
      "outputs": [
        {
          "internalType": "uint256",
          "name": "",
          "type": "uint256"
        }
      ],
      "stateMutability": "view",
      "type": "function"
    },
    {
      "inputs": [
        {
          "internalType": "address",
          "name": "voter",
          "type": "address"
        }
      ],
      "name": "registerVoter",
      "outputs": [],
      "stateMutability": "nonpayable",
      "type": "function"
    },
    {
      "inputs": [
        {
          "internalType": "string",
          "name": "proposition",
          "type": "string"
        }
      ],
      "name": "registerProposal",
      "outputs": [],
      "stateMutability": "nonpayable",
      "type": "function"
    },
    {
      "inputs": [
        {
          "internalType": "uint256",
          "name": "proposalId",
          "type": "uint256"
        }
      ],
      "name": "vote",
      "outputs": [],
      "stateMutability": "nonpayable",
      "type": "function"
    },
    {
      "inputs": [],
      "name": "countVotes",
      "outputs": [],
      "stateMutability": "nonpayable",
      "type": "function"
    },
    {
      "inputs": [],
      "name": "startProposalRegistration",
      "outputs": [],
      "stateMutability": "nonpayable",
      "type": "function"
    },
    {
      "inputs": [],
      "name": "stopProposalRegistration",
      "outputs": [],
      "stateMutability": "nonpayable",
      "type": "function"
    },
    {
      "inputs": [],
      "name": "startVotingSession",
      "outputs": [],
      "stateMutability": "nonpayable",
      "type": "function"
    },
    {
      "inputs": [],
      "name": "stopVotingSession",
      "outputs": [],
      "stateMutability": "nonpayable",
      "type": "function"
    }
  ],
  "bytecode": "0x60806040526000600360006101000a81548160ff021916908360058111156200002d576200002c62000132565b5b02179055503480156200003f57600080fd5b5062000060620000546200006660201b60201c565b6200006e60201b60201c565b62000161565b600033905090565b60008060009054906101000a900473ffffffffffffffffffffffffffffffffffffffff169050816000806101000a81548173ffffffffffffffffffffffffffffffffffffffff021916908373ffffffffffffffffffffffffffffffffffffffff1602179055508173ffffffffffffffffffffffffffffffffffffffff168173ffffffffffffffffffffffffffffffffffffffff167f8be0079c531659141344cd1fd0a4f28419497f9722a3daafe3b4186f6b6457e060405160405180910390a35050565b7f4e487b7100000000000000000000000000000000000000000000000000000000600052602160045260246000fd5b61204580620001716000396000f3fe608060405234801561001057600080fd5b506004361061010b5760003560e01c8063715018a6116100a2578063b647990a11610071578063b647990a14610249578063c08cc02d14610253578063c64963c514610271578063ee74c6781461028f578063f2fde38b146102995761010b565b8063715018a6146101d15780638da5cb5b146101db5780638e7ea5b2146101f9578063a3ec138d146102175761010b565b80632f95355b116100de5780632f95355b1461017157806338db6dd31461018d5780634abfba2b146101a9578063581c281c146101b35761010b565b80630121b93f14610110578063013cf08b1461012c5780630f7e28381461015d57806317a0ad8e14610167575b600080fd5b61012a600480360381019061012591906114e3565b6102b5565b005b610146600480360381019061014191906114e3565b6104be565b6040516101549291906115b8565b60405180910390f35b61016561056a565b005b61016f610600565b005b61018b6004803603810190610186919061171d565b610696565b005b6101a760048036038101906101a291906117c4565b610753565b005b6101b16109c2565b005b6101bb610a58565b6040516101c891906117f1565b60405180910390f35b6101d9610a77565b005b6101e3610aff565b6040516101f09190611822565b60405180910390f35b610201610b28565b60405161020e91906118d3565b60405180910390f35b610231600480360381019061022c91906117c4565b610bf1565b60405161024093929190611910565b60405180910390f35b610251610c35565b005b61025b610d38565b6040516102689190611947565b60405180910390f35b610279610d49565b6040516102869190611947565b60405180910390f35b610297610d4f565b005b6102b360048036038101906102ae91906117c4565b610de5565b005b6102bd610edd565b60036102c881610f91565b600182101580156102e257506102de6001611034565b8211155b610321576040517f08c379a0000000000000000000000000000000000000000000000000000000008152600401610318906119d4565b60405180910390fd5b600460003373ffffffffffffffffffffffffffffffffffffffff1673ffffffffffffffffffffffffffffffffffffffff16815260200190815260200160002060000160019054906101000a900460ff16156103b1576040517f08c379a00000000000000000000000000000000000000000000000000000000081526004016103a890611a40565b60405180910390fd5b60016005600084815260200190815260200160002060010160008282546103d89190611a8f565b9250508190555081600460003373ffffffffffffffffffffffffffffffffffffffff1673ffffffffffffffffffffffffffffffffffffffff168152602001908152602001600020600101819055506001600460003373ffffffffffffffffffffffffffffffffffffffff1673ffffffffffffffffffffffffffffffffffffffff16815260200190815260200160002060000160016101000a81548160ff0219169083151502179055507f4d99b957a2bc29a30ebd96a7be8e68fe50a3c701db28a91436490b7d53870ca433836040516104b2929190611ae5565b60405180910390a15050565b60056020528060005260406000206000915090508060000180546104e190611b3d565b80601f016020809104026020016040519081016040528092919081815260200182805461050d90611b3d565b801561055a5780601f1061052f5761010080835404028352916020019161055a565b820191906000526020600020905b81548152906001019060200180831161053d57829003601f168201915b5050505050908060010154905082565b610572611042565b73ffffffffffffffffffffffffffffffffffffffff16610590610aff565b73ffffffffffffffffffffffffffffffffffffffff16146105e6576040517f08c379a00000000000000000000000000000000000000000000000000000000081526004016105dd90611bbb565b60405180910390fd5b60006105f181610f91565b6105fd6000600161104a565b50565b610608611042565b73ffffffffffffffffffffffffffffffffffffffff16610626610aff565b73ffffffffffffffffffffffffffffffffffffffff161461067c576040517f08c379a000000000000000000000000000000000000000000000000000000000815260040161067390611bbb565b60405180910390fd5b600361068781610f91565b6106936003600461104a565b50565b61069e610edd565b60016106a981610f91565b6106b360016110b1565b60405180604001604052808381526020016000815250600560006106d76001611034565b815260200190815260200160002060008201518160000190805190602001906107019291906113dc565b50602082015181600101559050507f92e393e9b54e2f801d3ea4beb0c5e71a21cc34a5d34b77d0fb8a3aa1650dc18f61073a6001611034565b6040516107479190611947565b60405180910390a15050565b61075b611042565b73ffffffffffffffffffffffffffffffffffffffff16610779610aff565b73ffffffffffffffffffffffffffffffffffffffff16146107cf576040517f08c379a00000000000000000000000000000000000000000000000000000000081526004016107c690611bbb565b60405180910390fd5b60006107da81610f91565b3373ffffffffffffffffffffffffffffffffffffffff168273ffffffffffffffffffffffffffffffffffffffff161415610849576040517f08c379a000000000000000000000000000000000000000000000000000000000815260040161084090611c4d565b60405180910390fd5b600460008373ffffffffffffffffffffffffffffffffffffffff1673ffffffffffffffffffffffffffffffffffffffff16815260200190815260200160002060000160009054906101000a900460ff16156108d9576040517f08c379a00000000000000000000000000000000000000000000000000000000081526004016108d090611cb9565b60405180910390fd5b60405180606001604052806001151581526020016000151581526020016000815250600460008473ffffffffffffffffffffffffffffffffffffffff1673ffffffffffffffffffffffffffffffffffffffff16815260200190815260200160002060008201518160000160006101000a81548160ff02191690831515021790555060208201518160000160016101000a81548160ff021916908315150217905550604082015181600101559050507fb6be2187d059cc2a55fe29e0e503b566e1e0f8c8780096e185429350acffd3dd826040516109b69190611822565b60405180910390a15050565b6109ca611042565b73ffffffffffffffffffffffffffffffffffffffff166109e8610aff565b73ffffffffffffffffffffffffffffffffffffffff1614610a3e576040517f08c379a0000000000000000000000000000000000000000000000000000000008152600401610a3590611bbb565b60405180910390fd5b6001610a4981610f91565b610a556001600261104a565b50565b6060610a72600360009054906101000a900460ff166110c7565b905090565b610a7f611042565b73ffffffffffffffffffffffffffffffffffffffff16610a9d610aff565b73ffffffffffffffffffffffffffffffffffffffff1614610af3576040517f08c379a0000000000000000000000000000000000000000000000000000000008152600401610aea90611bbb565b60405180910390fd5b610afd6000611318565b565b60008060009054906101000a900473ffffffffffffffffffffffffffffffffffffffff16905090565b610b30611462565b600560006002548152602001908152602001600020604051806040016040529081600082018054610b6090611b3d565b80601f0160208091040260200160405190810160405280929190818152602001828054610b8c90611b3d565b8015610bd95780601f10610bae57610100808354040283529160200191610bd9565b820191906000526020600020905b815481529060010190602001808311610bbc57829003601f168201915b50505050508152602001600182015481525050905090565b60046020528060005260406000206000915090508060000160009054906101000a900460ff16908060000160019054906101000a900460ff16908060010154905083565b610c3d611042565b73ffffffffffffffffffffffffffffffffffffffff16610c5b610aff565b73ffffffffffffffffffffffffffffffffffffffff1614610cb1576040517f08c379a0000000000000000000000000000000000000000000000000000000008152600401610ca890611bbb565b60405180910390fd5b6004610cbc81610f91565b600080600190505b610cce6001611034565b811015610d27578160056000838152602001908152602001600020600101541115610d145780600281905550600560008281526020019081526020016000206001015491505b8080610d1f90611cd9565b915050610cc4565b50610d346004600561104a565b5050565b6000610d446001611034565b905090565b60025481565b610d57611042565b73ffffffffffffffffffffffffffffffffffffffff16610d75610aff565b73ffffffffffffffffffffffffffffffffffffffff1614610dcb576040517f08c379a0000000000000000000000000000000000000000000000000000000008152600401610dc290611bbb565b60405180910390fd5b6002610dd681610f91565b610de26002600361104a565b50565b610ded611042565b73ffffffffffffffffffffffffffffffffffffffff16610e0b610aff565b73ffffffffffffffffffffffffffffffffffffffff1614610e61576040517f08c379a0000000000000000000000000000000000000000000000000000000008152600401610e5890611bbb565b60405180910390fd5b600073ffffffffffffffffffffffffffffffffffffffff168173ffffffffffffffffffffffffffffffffffffffff161415610ed1576040517f08c379a0000000000000000000000000000000000000000000000000000000008152600401610ec890611d94565b60405180910390fd5b610eda81611318565b50565b600460003373ffffffffffffffffffffffffffffffffffffffff1673ffffffffffffffffffffffffffffffffffffffff16815260200190815260200160002060000160009054906101000a900460ff1633604051602001610f3e9190611e53565b60405160208183030381529060405290610f8e576040517f08c379a0000000000000000000000000000000000000000000000000000000008152600401610f8591906117f1565b60405180910390fd5b50565b806005811115610fa457610fa3611e79565b5b600360009054906101000a900460ff166005811115610fc657610fc5611e79565b5b14610fd0826110c7565b604051602001610fe09190611f71565b60405160208183030381529060405290611030576040517f08c379a000000000000000000000000000000000000000000000000000000000815260040161102791906117f1565b60405180910390fd5b5050565b600081600001549050919050565b600033905090565b80600360006101000a81548160ff0219169083600581111561106f5761106e611e79565b5b02179055507f0a97a4ee45751e2abf3e4fc8946939630b11b371ea8ae39ccdc3056e98f5cc3f82826040516110a5929190611fe6565b60405180910390a15050565b6001816000016000828254019250508190555050565b6060600160058111156110dd576110dc611e79565b5b8260058111156110f0576110ef611e79565b5b1415611133576040518060400160405280601c81526020017f50726f706f73616c73526567697374726174696f6e53746172746564000000008152509050611313565b6002600581111561114757611146611e79565b5b82600581111561115a57611159611e79565b5b141561119d576040518060400160405280601a81526020017f50726f706f73616c73526567697374726174696f6e456e6465640000000000008152509050611313565b600360058111156111b1576111b0611e79565b5b8260058111156111c4576111c3611e79565b5b1415611207576040518060400160405280601481526020017f566f74696e6753657373696f6e537461727465640000000000000000000000008152509050611313565b6004600581111561121b5761121a611e79565b5b82600581111561122e5761122d611e79565b5b1415611271576040518060400160405280601281526020017f566f74696e6753657373696f6e456e64656400000000000000000000000000008152509050611313565b60058081111561128457611283611e79565b5b82600581111561129757611296611e79565b5b14156112da576040518060400160405280600c81526020017f566f74657354616c6c69656400000000000000000000000000000000000000008152509050611313565b6040518060400160405280601181526020017f5265676973746572696e67566f7465727300000000000000000000000000000081525090505b919050565b60008060009054906101000a900473ffffffffffffffffffffffffffffffffffffffff169050816000806101000a81548173ffffffffffffffffffffffffffffffffffffffff021916908373ffffffffffffffffffffffffffffffffffffffff1602179055508173ffffffffffffffffffffffffffffffffffffffff168173ffffffffffffffffffffffffffffffffffffffff167f8be0079c531659141344cd1fd0a4f28419497f9722a3daafe3b4186f6b6457e060405160405180910390a35050565b8280546113e890611b3d565b90600052602060002090601f01602090048101928261140a5760008555611451565b82601f1061142357805160ff1916838001178555611451565b82800160010185558215611451579182015b82811115611450578251825591602001919060010190611435565b5b50905061145e919061147c565b5090565b604051806040016040528060608152602001600081525090565b5b8082111561149557600081600090555060010161147d565b5090565b6000604051905090565b600080fd5b600080fd5b6000819050919050565b6114c0816114ad565b81146114cb57600080fd5b50565b6000813590506114dd816114b7565b92915050565b6000602082840312156114f9576114f86114a3565b5b6000611507848285016114ce565b91505092915050565b600081519050919050565b600082825260208201905092915050565b60005b8381101561154a57808201518184015260208101905061152f565b83811115611559576000848401525b50505050565b6000601f19601f8301169050919050565b600061157b82611510565b611585818561151b565b935061159581856020860161152c565b61159e8161155f565b840191505092915050565b6115b2816114ad565b82525050565b600060408201905081810360008301526115d28185611570565b90506115e160208301846115a9565b9392505050565b600080fd5b600080fd5b7f4e487b7100000000000000000000000000000000000000000000000000000000600052604160045260246000fd5b61162a8261155f565b810181811067ffffffffffffffff82111715611649576116486115f2565b5b80604052505050565b600061165c611499565b90506116688282611621565b919050565b600067ffffffffffffffff821115611688576116876115f2565b5b6116918261155f565b9050602081019050919050565b82818337600083830152505050565b60006116c06116bb8461166d565b611652565b9050828152602081018484840111156116dc576116db6115ed565b5b6116e784828561169e565b509392505050565b600082601f830112611704576117036115e8565b5b81356117148482602086016116ad565b91505092915050565b600060208284031215611733576117326114a3565b5b600082013567ffffffffffffffff811115611751576117506114a8565b5b61175d848285016116ef565b91505092915050565b600073ffffffffffffffffffffffffffffffffffffffff82169050919050565b600061179182611766565b9050919050565b6117a181611786565b81146117ac57600080fd5b50565b6000813590506117be81611798565b92915050565b6000602082840312156117da576117d96114a3565b5b60006117e8848285016117af565b91505092915050565b6000602082019050818103600083015261180b8184611570565b905092915050565b61181c81611786565b82525050565b60006020820190506118376000830184611813565b92915050565b600082825260208201905092915050565b600061185982611510565b611863818561183d565b935061187381856020860161152c565b61187c8161155f565b840191505092915050565b611890816114ad565b82525050565b600060408301600083015184820360008601526118b3828261184e565b91505060208301516118c86020860182611887565b508091505092915050565b600060208201905081810360008301526118ed8184611896565b905092915050565b60008115159050919050565b61190a816118f5565b82525050565b60006060820190506119256000830186611901565b6119326020830185611901565b61193f60408301846115a9565b949350505050565b600060208201905061195c60008301846115a9565b92915050565b7f50726f706f73616c206e6f7420666f756e642062792074686520676976656e2060008201527f4964202100000000000000000000000000000000000000000000000000000000602082015250565b60006119be60248361151b565b91506119c982611962565b604082019050919050565b600060208201905081810360008301526119ed816119b1565b9050919050565b7f416c726561647920766f74656420210000000000000000000000000000000000600082015250565b6000611a2a600f8361151b565b9150611a35826119f4565b602082019050919050565b60006020820190508181036000830152611a5981611a1d565b9050919050565b7f4e487b7100000000000000000000000000000000000000000000000000000000600052601160045260246000fd5b6000611a9a826114ad565b9150611aa5836114ad565b9250827fffffffffffffffffffffffffffffffffffffffffffffffffffffffffffffffff03821115611ada57611ad9611a60565b5b828201905092915050565b6000604082019050611afa6000830185611813565b611b0760208301846115a9565b9392505050565b7f4e487b7100000000000000000000000000000000000000000000000000000000600052602260045260246000fd5b60006002820490506001821680611b5557607f821691505b60208210811415611b6957611b68611b0e565b5b50919050565b7f4f776e61626c653a2063616c6c6572206973206e6f7420746865206f776e6572600082015250565b6000611ba560208361151b565b9150611bb082611b6f565b602082019050919050565b60006020820190508181036000830152611bd481611b98565b9050919050565b7f41646d696e6973747261746f722063616e6e6f74206265206120766f7465722060008201527f2100000000000000000000000000000000000000000000000000000000000000602082015250565b6000611c3760218361151b565b9150611c4282611bdb565b604082019050919050565b60006020820190508181036000830152611c6681611c2a565b9050919050565b7f566f74657220616c726561647920726567697374657265642021000000000000600082015250565b6000611ca3601a8361151b565b9150611cae82611c6d565b602082019050919050565b60006020820190508181036000830152611cd281611c96565b9050919050565b6000611ce4826114ad565b91507fffffffffffffffffffffffffffffffffffffffffffffffffffffffffffffffff821415611d1757611d16611a60565b5b600182019050919050565b7f4f776e61626c653a206e6577206f776e657220697320746865207a65726f206160008201527f6464726573730000000000000000000000000000000000000000000000000000602082015250565b6000611d7e60268361151b565b9150611d8982611d22565b604082019050919050565b60006020820190508181036000830152611dad81611d71565b9050919050565b600081905092915050565b7f4e6f742061207265676973746572656420766f7465723a200000000000000000600082015250565b6000611df5601883611db4565b9150611e0082611dbf565b601882019050919050565b60008160601b9050919050565b6000611e2382611e0b565b9050919050565b6000611e3582611e18565b9050919050565b611e4d611e4882611786565b611e2a565b82525050565b6000611e5e82611de8565b9150611e6a8284611e3c565b60148201915081905092915050565b7f4e487b7100000000000000000000000000000000000000000000000000000000600052602160045260246000fd5b7f5265717569726520000000000000000000000000000000000000000000000000600082015250565b6000611ede600883611db4565b9150611ee982611ea8565b600882019050919050565b6000611eff82611510565b611f098185611db4565b9350611f1981856020860161152c565b80840191505092915050565b7f2073746174757320210000000000000000000000000000000000000000000000600082015250565b6000611f5b600983611db4565b9150611f6682611f25565b600982019050919050565b6000611f7c82611ed1565b9150611f888284611ef4565b9150611f9382611f4e565b915081905092915050565b60068110611faf57611fae611e79565b5b50565b6000819050611fc082611f9e565b919050565b6000611fd082611fb2565b9050919050565b611fe081611fc5565b82525050565b6000604082019050611ffb6000830185611fd7565b6120086020830184611fd7565b939250505056fea2646970667358221220f70ccd678e5662045a1ab948b3bf83d38447681ef8a129260e04679d8107ab4964736f6c634300080b0033",
  "immutableReferences": {},
  "source": "// SPDX-License-Identifier: GPL-3.0\r\npragma solidity ^0.8.0;\r\n\r\nimport \"@openzeppelin/contracts/access/Ownable.sol\";\r\nimport \"@openzeppelin/contracts/utils/Counters.sol\";\r\n\r\ncontract Voting is Ownable {\r\n    using Counters for Counters.Counter;\r\n    Counters.Counter private proposalCounter;\r\n\r\n    uint public winningProposalId;\r\n    WorkflowStatus private votingStatus = WorkflowStatus.RegisteringVoters;\r\n    \r\n    struct Voter {\r\n        bool isRegistered;\r\n        bool hasVoted;\r\n        uint votedProposalId;\r\n    }\r\n\r\n    struct Proposal {\r\n        string description;\r\n        uint voteCount;\r\n    }\r\n\r\n    enum WorkflowStatus {\r\n        RegisteringVoters,\r\n        ProposalsRegistrationStarted,\r\n        ProposalsRegistrationEnded,\r\n        VotingSessionStarted,\r\n        VotingSessionEnded,\r\n        VotesTallied\r\n    }\r\n\r\n    event VoterRegistered(address voterAddress); \r\n    event WorkflowStatusChange(WorkflowStatus previousStatus, WorkflowStatus newStatus);\r\n    event ProposalRegistered(uint proposalId);\r\n    event Voted (address voter, uint proposalId);\r\n\r\n    mapping(address => Voter) public voters;\r\n    mapping(uint => Proposal) public proposals;\r\n\r\n\r\n    /// @notice better modifier performance\r\n    function requireStatus(WorkflowStatus status) internal view {\r\n        require(votingStatus == status, string(abi.encodePacked(\"Require \", getVotingStatusString(status), \" status !\")));\r\n    }   \r\n\r\n    modifier onlyStatus(WorkflowStatus status) {\r\n        requireStatus(status);\r\n        _;\r\n    }\r\n\r\n    /// @notice better modifier performance\r\n    function requireRegisteredVoter() internal view {\r\n        require(voters[msg.sender].isRegistered, string(abi.encodePacked(\"Not a registered voter: \", msg.sender)));\r\n    }\r\n\r\n    modifier onlyRegisteredVoter() {\r\n        requireRegisteredVoter();    \r\n        _;\r\n    }\r\n\r\n    /*\r\n        Getters\r\n    */\r\n\r\n    function getVotingStatus() public view returns (string memory) {\r\n        return getVotingStatusString(votingStatus);\r\n    }\r\n\r\n    // Returns a string instead of the uint of the enumeration \r\n    function getVotingStatusString(WorkflowStatus status) internal pure returns (string memory) {\r\n        if (status == WorkflowStatus.ProposalsRegistrationStarted) {\r\n            return \"ProposalsRegistrationStarted\";\r\n        } else if (status == WorkflowStatus.ProposalsRegistrationEnded) {\r\n            return \"ProposalsRegistrationEnded\";\r\n        } else if (status == WorkflowStatus.VotingSessionStarted) {\r\n            return \"VotingSessionStarted\";\r\n        } else if (status == WorkflowStatus.VotingSessionEnded) {\r\n            return \"VotingSessionEnded\";\r\n        } else if (status == WorkflowStatus.VotesTallied) {\r\n            return \"VotesTallied\";\r\n        } else {\r\n            return \"RegisteringVoters\";\r\n        }\r\n    }\r\n\r\n    function getWinner() public view returns (Proposal memory) {\r\n        return proposals[winningProposalId];\r\n    }\r\n\r\n    function getProposalCount() public view returns (uint) {\r\n        return proposalCounter.current();\r\n    }\r\n    \r\n    /*\r\n        Set of functions to handle participation, voting proposals and vote\r\n    */\r\n\r\n    // Whitelist voter with his address\r\n    function registerVoter(address voter) external onlyOwner onlyStatus(WorkflowStatus.RegisteringVoters) {\r\n        require(voter != msg.sender, \"Administrator cannot be a voter !\");\r\n        require(!voters[voter].isRegistered, \"Voter already registered !\");\r\n        voters[voter] = Voter(true, false, 0);\r\n        emit VoterRegistered(voter);\r\n    }\r\n\r\n    // Add new proposal only if voter is whitelisted\r\n    function registerProposal(string memory proposition) public onlyRegisteredVoter onlyStatus(WorkflowStatus.ProposalsRegistrationStarted) {\r\n        proposalCounter.increment();\r\n        proposals[proposalCounter.current()] = Proposal(proposition, 0);\r\n        emit ProposalRegistered(proposalCounter.current());\r\n    }\r\n\r\n    // Voters can vote\r\n    function vote(uint proposalId) public onlyRegisteredVoter onlyStatus(WorkflowStatus.VotingSessionStarted) {\r\n        require(proposalId >= 1 &&  proposalId <= proposalCounter.current(), \"Proposal not found by the given Id !\");\r\n        require(!voters[msg.sender].hasVoted, \"Already voted !\");\r\n        proposals[proposalId].voteCount += 1;\r\n        voters[msg.sender].votedProposalId = proposalId;\r\n        voters[msg.sender].hasVoted = true;\r\n        emit Voted(msg.sender, proposalId);\r\n    }\r\n\r\n    // Counts all the votes and publish the result\r\n    function countVotes() public onlyOwner onlyStatus(WorkflowStatus.VotingSessionEnded) {\r\n        uint bestVote = 0;\r\n        \r\n        for (uint i=1; i<proposalCounter.current(); i++) {\r\n            if(proposals[i].voteCount > bestVote){\r\n                winningProposalId = i;\r\n                bestVote = proposals[i].voteCount;\r\n            }\r\n        }\r\n\r\n        changeWorkflowStatus(WorkflowStatus.VotingSessionEnded, WorkflowStatus.VotesTallied);\r\n    }\r\n\r\n    /*\r\n        Set of function that change the WorkflowStatus state\r\n    */\r\n\r\n    function changeWorkflowStatus(WorkflowStatus previous, WorkflowStatus next) internal {\r\n        votingStatus = next;\r\n        emit WorkflowStatusChange(previous, next);\r\n    }\r\n\r\n    function startProposalRegistration() public onlyOwner onlyStatus(WorkflowStatus.RegisteringVoters) {\r\n        changeWorkflowStatus(WorkflowStatus.RegisteringVoters, WorkflowStatus.ProposalsRegistrationStarted);\r\n    }\r\n\r\n    function stopProposalRegistration() public onlyOwner onlyStatus(WorkflowStatus.ProposalsRegistrationStarted) {\r\n        changeWorkflowStatus(WorkflowStatus.ProposalsRegistrationStarted, WorkflowStatus.ProposalsRegistrationEnded);\r\n    }\r\n\r\n    function startVotingSession() public onlyOwner onlyStatus(WorkflowStatus.ProposalsRegistrationEnded) {\r\n        changeWorkflowStatus(WorkflowStatus.ProposalsRegistrationEnded, WorkflowStatus.VotingSessionStarted);\r\n    }\r\n\r\n    function stopVotingSession() public onlyOwner onlyStatus(WorkflowStatus.VotingSessionStarted) {\r\n        changeWorkflowStatus(WorkflowStatus.VotingSessionStarted, WorkflowStatus.VotingSessionEnded);\r\n    }\r\n}",
  "sourcePath": "/home/hacker/Documents/Lab/voting/contracts/Voting.sol",
  "compiler": {
    "name": "solc",
    "version": "0.8.11+commit.d7f03943.Emscripten.clang"
  },
  "schemaVersion": "3.4.4",
  "updatedAt": "2022-02-10T15:53:59.360Z",
  "devdoc": {
    "kind": "dev",
    "methods": {
      "owner()": {
        "details": "Returns the address of the current owner."
      },
      "renounceOwnership()": {
        "details": "Leaves the contract without owner. It will not be possible to call `onlyOwner` functions anymore. Can only be called by the current owner. NOTE: Renouncing ownership will leave the contract without an owner, thereby removing any functionality that is only available to the owner."
      },
      "transferOwnership(address)": {
        "details": "Transfers ownership of the contract to a new account (`newOwner`). Can only be called by the current owner."
      }
    },
    "version": 1
  },
  "userdoc": {
    "kind": "user",
    "methods": {},
    "version": 1
  }
}