{
  "contractName": "Voting",
  "abi": [
    {
      "anonymous": false,
      "inputs": [
        {
          "indexed": true,
          "internalType": "address",
          "name": "previousOwner",
          "type": "address"
        },
        {
          "indexed": true,
          "internalType": "address",
          "name": "newOwner",
          "type": "address"
        }
      ],
      "name": "OwnershipTransferred",
      "type": "event"
    },
    {
      "anonymous": false,
      "inputs": [
        {
          "indexed": false,
          "internalType": "uint256",
          "name": "proposalId",
          "type": "uint256"
        }
      ],
      "name": "ProposalRegistered",
      "type": "event"
    },
    {
      "anonymous": false,
      "inputs": [
        {
          "indexed": false,
          "internalType": "address",
          "name": "voter",
          "type": "address"
        },
        {
          "indexed": false,
          "internalType": "uint256",
          "name": "proposalId",
          "type": "uint256"
        }
      ],
      "name": "Voted",
      "type": "event"
    },
    {
      "anonymous": false,
      "inputs": [
        {
          "indexed": false,
          "internalType": "address",
          "name": "voterAddress",
          "type": "address"
        }
      ],
      "name": "VoterRegistered",
      "type": "event"
    },
    {
      "anonymous": false,
      "inputs": [
        {
          "indexed": false,
          "internalType": "enum Voting.WorkflowStatus",
          "name": "previousStatus",
          "type": "uint8"
        },
        {
          "indexed": false,
          "internalType": "enum Voting.WorkflowStatus",
          "name": "newStatus",
          "type": "uint8"
        }
      ],
      "name": "WorkflowStatusChange",
      "type": "event"
    },
    {
      "inputs": [],
      "name": "owner",
      "outputs": [
        {
          "internalType": "address",
          "name": "",
          "type": "address"
        }
      ],
      "stateMutability": "view",
      "type": "function"
    },
    {
      "inputs": [
        {
          "internalType": "uint256",
          "name": "",
          "type": "uint256"
        }
      ],
      "name": "proposals",
      "outputs": [
        {
          "internalType": "string",
          "name": "description",
          "type": "string"
        },
        {
          "internalType": "uint256",
          "name": "voteCount",
          "type": "uint256"
        }
      ],
      "stateMutability": "view",
      "type": "function"
    },
    {
      "inputs": [],
      "name": "renounceOwnership",
      "outputs": [],
      "stateMutability": "nonpayable",
      "type": "function"
    },
    {
      "inputs": [
        {
          "internalType": "address",
          "name": "newOwner",
          "type": "address"
        }
      ],
      "name": "transferOwnership",
      "outputs": [],
      "stateMutability": "nonpayable",
      "type": "function"
    },
    {
      "inputs": [
        {
          "internalType": "address",
          "name": "",
          "type": "address"
        }
      ],
      "name": "voters",
      "outputs": [
        {
          "internalType": "bool",
          "name": "isRegistered",
          "type": "bool"
        },
        {
          "internalType": "bool",
          "name": "hasVoted",
          "type": "bool"
        },
        {
          "internalType": "uint256",
          "name": "votedProposalId",
          "type": "uint256"
        }
      ],
      "stateMutability": "view",
      "type": "function"
    },
    {
      "inputs": [],
      "name": "winningProposalId",
      "outputs": [
        {
          "internalType": "uint256",
          "name": "",
          "type": "uint256"
        }
      ],
      "stateMutability": "view",
      "type": "function"
    },
    {
      "inputs": [],
      "name": "getVotingStatus",
      "outputs": [
        {
          "internalType": "string",
          "name": "",
          "type": "string"
        }
      ],
      "stateMutability": "view",
      "type": "function"
    },
    {
      "inputs": [],
      "name": "getWinner",
      "outputs": [
        {
          "components": [
            {
              "internalType": "string",
              "name": "description",
              "type": "string"
            },
            {
              "internalType": "uint256",
              "name": "voteCount",
              "type": "uint256"
            }
          ],
          "internalType": "struct Voting.Proposal",
          "name": "",
          "type": "tuple"
        }
      ],
      "stateMutability": "view",
      "type": "function"
    },
    {
      "inputs": [],
      "name": "getProposalCount",
      "outputs": [
        {
          "internalType": "uint256",
          "name": "",
          "type": "uint256"
        }
      ],
      "stateMutability": "view",
      "type": "function"
    },
    {
      "inputs": [
        {
          "internalType": "address",
          "name": "_voter",
          "type": "address"
        }
      ],
      "name": "registerVoter",
      "outputs": [],
      "stateMutability": "nonpayable",
      "type": "function"
    },
    {
      "inputs": [
        {
          "internalType": "string",
          "name": "_proposition",
          "type": "string"
        }
      ],
      "name": "registerProposal",
      "outputs": [],
      "stateMutability": "nonpayable",
      "type": "function"
    },
    {
      "inputs": [
        {
          "internalType": "uint256",
          "name": "_proposalId",
          "type": "uint256"
        }
      ],
      "name": "vote",
      "outputs": [],
      "stateMutability": "nonpayable",
      "type": "function"
    },
    {
      "inputs": [],
      "name": "countVotes",
      "outputs": [],
      "stateMutability": "nonpayable",
      "type": "function"
    },
    {
      "inputs": [],
      "name": "startProposalRegistration",
      "outputs": [],
      "stateMutability": "nonpayable",
      "type": "function"
    },
    {
      "inputs": [],
      "name": "stopProposalRegistration",
      "outputs": [],
      "stateMutability": "nonpayable",
      "type": "function"
    },
    {
      "inputs": [],
      "name": "startVotingSession",
      "outputs": [],
      "stateMutability": "nonpayable",
      "type": "function"
    },
    {
      "inputs": [],
      "name": "stopVotingSession",
      "outputs": [],
      "stateMutability": "nonpayable",
      "type": "function"
    }
  ],
  "bytecode": "0x60806040526000600360006101000a81548160ff021916908360058111156200002d576200002c62000132565b5b02179055503480156200003f57600080fd5b5062000060620000546200006660201b60201c565b6200006e60201b60201c565b62000161565b600033905090565b60008060009054906101000a900473ffffffffffffffffffffffffffffffffffffffff169050816000806101000a81548173ffffffffffffffffffffffffffffffffffffffff021916908373ffffffffffffffffffffffffffffffffffffffff1602179055508173ffffffffffffffffffffffffffffffffffffffff168173ffffffffffffffffffffffffffffffffffffffff167f8be0079c531659141344cd1fd0a4f28419497f9722a3daafe3b4186f6b6457e060405160405180910390a35050565b7f4e487b7100000000000000000000000000000000000000000000000000000000600052602160045260246000fd5b6124fa80620001716000396000f3fe608060405234801561001057600080fd5b506004361061010b5760003560e01c8063715018a6116100a2578063b647990a11610071578063b647990a14610249578063c08cc02d14610253578063c64963c514610271578063ee74c6781461028f578063f2fde38b146102995761010b565b8063715018a6146101d15780638da5cb5b146101db5780638e7ea5b2146101f9578063a3ec138d146102175761010b565b80632f95355b116100de5780632f95355b1461017157806338db6dd31461018d5780634abfba2b146101a9578063581c281c146101b35761010b565b80630121b93f14610110578063013cf08b1461012c5780630f7e28381461015d57806317a0ad8e14610167575b600080fd5b61012a60048036038101906101259190611998565b6102b5565b005b61014660048036038101906101419190611998565b6105ff565b604051610154929190611a6d565b60405180910390f35b6101656106ab565b005b61016f6107d8565b005b61018b60048036038101906101869190611bd2565b610905565b005b6101a760048036038101906101a29190611c79565b610b03565b005b6101b1610e09565b005b6101bb610f36565b6040516101c89190611ca6565b60405180910390f35b6101d9610f55565b005b6101e3610fdd565b6040516101f09190611cd7565b60405180910390f35b610201611006565b60405161020e9190611d88565b60405180910390f35b610231600480360381019061022c9190611c79565b6110cf565b60405161024093929190611dc5565b60405180910390f35b610251611113565b005b61025b6112ad565b6040516102689190611dfc565b60405180910390f35b6102796112be565b6040516102869190611dfc565b60405180910390f35b6102976112c4565b005b6102b360048036038101906102ae9190611c79565b6113f1565b005b600460003373ffffffffffffffffffffffffffffffffffffffff1673ffffffffffffffffffffffffffffffffffffffff16815260200190815260200160002060000160009054906101000a900460ff16336040516020016103169190611eb6565b60405160208183030381529060405290610366576040517f08c379a000000000000000000000000000000000000000000000000000000000815260040161035d9190611ca6565b60405180910390fd5b50600380600581111561037c5761037b611edc565b5b600360009054906101000a900460ff16600581111561039e5761039d611edc565b5b146103a8826114e9565b6040516020016103b89190611fd4565b60405160208183030381529060405290610408576040517f08c379a00000000000000000000000000000000000000000000000000000000081526004016103ff9190611ca6565b60405180910390fd5b5060018210158015610423575061041f600161173a565b8211155b610462576040517f08c379a000000000000000000000000000000000000000000000000000000000815260040161045990612073565b60405180910390fd5b600460003373ffffffffffffffffffffffffffffffffffffffff1673ffffffffffffffffffffffffffffffffffffffff16815260200190815260200160002060000160019054906101000a900460ff16156104f2576040517f08c379a00000000000000000000000000000000000000000000000000000000081526004016104e9906120df565b60405180910390fd5b6001600560008481526020019081526020016000206001016000828254610519919061212e565b9250508190555081600460003373ffffffffffffffffffffffffffffffffffffffff1673ffffffffffffffffffffffffffffffffffffffff168152602001908152602001600020600101819055506001600460003373ffffffffffffffffffffffffffffffffffffffff1673ffffffffffffffffffffffffffffffffffffffff16815260200190815260200160002060000160016101000a81548160ff0219169083151502179055507f4d99b957a2bc29a30ebd96a7be8e68fe50a3c701db28a91436490b7d53870ca433836040516105f3929190612184565b60405180910390a15050565b6005602052806000526040600020600091509050806000018054610622906121dc565b80601f016020809104026020016040519081016040528092919081815260200182805461064e906121dc565b801561069b5780601f106106705761010080835404028352916020019161069b565b820191906000526020600020905b81548152906001019060200180831161067e57829003601f168201915b5050505050908060010154905082565b6106b3611748565b73ffffffffffffffffffffffffffffffffffffffff166106d1610fdd565b73ffffffffffffffffffffffffffffffffffffffff1614610727576040517f08c379a000000000000000000000000000000000000000000000000000000000815260040161071e9061225a565b60405180910390fd5b600080600581111561073c5761073b611edc565b5b600360009054906101000a900460ff16600581111561075e5761075d611edc565b5b14610768826114e9565b6040516020016107789190611fd4565b604051602081830303815290604052906107c8576040517f08c379a00000000000000000000000000000000000000000000000000000000081526004016107bf9190611ca6565b60405180910390fd5b506107d560006001611750565b50565b6107e0611748565b73ffffffffffffffffffffffffffffffffffffffff166107fe610fdd565b73ffffffffffffffffffffffffffffffffffffffff1614610854576040517f08c379a000000000000000000000000000000000000000000000000000000000815260040161084b9061225a565b60405180910390fd5b600380600581111561086957610868611edc565b5b600360009054906101000a900460ff16600581111561088b5761088a611edc565b5b14610895826114e9565b6040516020016108a59190611fd4565b604051602081830303815290604052906108f5576040517f08c379a00000000000000000000000000000000000000000000000000000000081526004016108ec9190611ca6565b60405180910390fd5b5061090260036004611750565b50565b600460003373ffffffffffffffffffffffffffffffffffffffff1673ffffffffffffffffffffffffffffffffffffffff16815260200190815260200160002060000160009054906101000a900460ff16336040516020016109669190611eb6565b604051602081830303815290604052906109b6576040517f08c379a00000000000000000000000000000000000000000000000000000000081526004016109ad9190611ca6565b60405180910390fd5b5060018060058111156109cc576109cb611edc565b5b600360009054906101000a900460ff1660058111156109ee576109ed611edc565b5b146109f8826114e9565b604051602001610a089190611fd4565b60405160208183030381529060405290610a58576040517f08c379a0000000000000000000000000000000000000000000000000000000008152600401610a4f9190611ca6565b60405180910390fd5b50610a6360016117b7565b6040518060400160405280838152602001600081525060056000610a87600161173a565b81526020019081526020016000206000820151816000019080519060200190610ab1929190611891565b50602082015181600101559050507f92e393e9b54e2f801d3ea4beb0c5e71a21cc34a5d34b77d0fb8a3aa1650dc18f610aea600161173a565b604051610af79190611dfc565b60405180910390a15050565b610b0b611748565b73ffffffffffffffffffffffffffffffffffffffff16610b29610fdd565b73ffffffffffffffffffffffffffffffffffffffff1614610b7f576040517f08c379a0000000000000000000000000000000000000000000000000000000008152600401610b769061225a565b60405180910390fd5b6000806005811115610b9457610b93611edc565b5b600360009054906101000a900460ff166005811115610bb657610bb5611edc565b5b14610bc0826114e9565b604051602001610bd09190611fd4565b60405160208183030381529060405290610c20576040517f08c379a0000000000000000000000000000000000000000000000000000000008152600401610c179190611ca6565b60405180910390fd5b503373ffffffffffffffffffffffffffffffffffffffff168273ffffffffffffffffffffffffffffffffffffffff161415610c90576040517f08c379a0000000000000000000000000000000000000000000000000000000008152600401610c87906122ec565b60405180910390fd5b600460008373ffffffffffffffffffffffffffffffffffffffff1673ffffffffffffffffffffffffffffffffffffffff16815260200190815260200160002060000160009054906101000a900460ff1615610d20576040517f08c379a0000000000000000000000000000000000000000000000000000000008152600401610d1790612358565b60405180910390fd5b60405180606001604052806001151581526020016000151581526020016000815250600460008473ffffffffffffffffffffffffffffffffffffffff1673ffffffffffffffffffffffffffffffffffffffff16815260200190815260200160002060008201518160000160006101000a81548160ff02191690831515021790555060208201518160000160016101000a81548160ff021916908315150217905550604082015181600101559050507fb6be2187d059cc2a55fe29e0e503b566e1e0f8c8780096e185429350acffd3dd82604051610dfd9190611cd7565b60405180910390a15050565b610e11611748565b73ffffffffffffffffffffffffffffffffffffffff16610e2f610fdd565b73ffffffffffffffffffffffffffffffffffffffff1614610e85576040517f08c379a0000000000000000000000000000000000000000000000000000000008152600401610e7c9061225a565b60405180910390fd5b6001806005811115610e9a57610e99611edc565b5b600360009054906101000a900460ff166005811115610ebc57610ebb611edc565b5b14610ec6826114e9565b604051602001610ed69190611fd4565b60405160208183030381529060405290610f26576040517f08c379a0000000000000000000000000000000000000000000000000000000008152600401610f1d9190611ca6565b60405180910390fd5b50610f3360016002611750565b50565b6060610f50600360009054906101000a900460ff166114e9565b905090565b610f5d611748565b73ffffffffffffffffffffffffffffffffffffffff16610f7b610fdd565b73ffffffffffffffffffffffffffffffffffffffff1614610fd1576040517f08c379a0000000000000000000000000000000000000000000000000000000008152600401610fc89061225a565b60405180910390fd5b610fdb60006117cd565b565b60008060009054906101000a900473ffffffffffffffffffffffffffffffffffffffff16905090565b61100e611917565b60056000600254815260200190815260200160002060405180604001604052908160008201805461103e906121dc565b80601f016020809104026020016040519081016040528092919081815260200182805461106a906121dc565b80156110b75780601f1061108c576101008083540402835291602001916110b7565b820191906000526020600020905b81548152906001019060200180831161109a57829003601f168201915b50505050508152602001600182015481525050905090565b60046020528060005260406000206000915090508060000160009054906101000a900460ff16908060000160019054906101000a900460ff16908060010154905083565b61111b611748565b73ffffffffffffffffffffffffffffffffffffffff16611139610fdd565b73ffffffffffffffffffffffffffffffffffffffff161461118f576040517f08c379a00000000000000000000000000000000000000000000000000000000081526004016111869061225a565b60405180910390fd5b60048060058111156111a4576111a3611edc565b5b600360009054906101000a900460ff1660058111156111c6576111c5611edc565b5b146111d0826114e9565b6040516020016111e09190611fd4565b60405160208183030381529060405290611230576040517f08c379a00000000000000000000000000000000000000000000000000000000081526004016112279190611ca6565b60405180910390fd5b50600080600190505b611243600161173a565b81101561129c5781600560008381526020019081526020016000206001015411156112895780600281905550600560008281526020019081526020016000206001015491505b808061129490612378565b915050611239565b506112a960046005611750565b5050565b60006112b9600161173a565b905090565b60025481565b6112cc611748565b73ffffffffffffffffffffffffffffffffffffffff166112ea610fdd565b73ffffffffffffffffffffffffffffffffffffffff1614611340576040517f08c379a00000000000000000000000000000000000000000000000000000000081526004016113379061225a565b60405180910390fd5b600280600581111561135557611354611edc565b5b600360009054906101000a900460ff16600581111561137757611376611edc565b5b14611381826114e9565b6040516020016113919190611fd4565b604051602081830303815290604052906113e1576040517f08c379a00000000000000000000000000000000000000000000000000000000081526004016113d89190611ca6565b60405180910390fd5b506113ee60026003611750565b50565b6113f9611748565b73ffffffffffffffffffffffffffffffffffffffff16611417610fdd565b73ffffffffffffffffffffffffffffffffffffffff161461146d576040517f08c379a00000000000000000000000000000000000000000000000000000000081526004016114649061225a565b60405180910390fd5b600073ffffffffffffffffffffffffffffffffffffffff168173ffffffffffffffffffffffffffffffffffffffff1614156114dd576040517f08c379a00000000000000000000000000000000000000000000000000000000081526004016114d490612433565b60405180910390fd5b6114e6816117cd565b50565b6060600160058111156114ff576114fe611edc565b5b82600581111561151257611511611edc565b5b1415611555576040518060400160405280601c81526020017f50726f706f73616c73526567697374726174696f6e53746172746564000000008152509050611735565b6002600581111561156957611568611edc565b5b82600581111561157c5761157b611edc565b5b14156115bf576040518060400160405280601a81526020017f50726f706f73616c73526567697374726174696f6e456e6465640000000000008152509050611735565b600360058111156115d3576115d2611edc565b5b8260058111156115e6576115e5611edc565b5b1415611629576040518060400160405280601481526020017f566f74696e6753657373696f6e537461727465640000000000000000000000008152509050611735565b6004600581111561163d5761163c611edc565b5b8260058111156116505761164f611edc565b5b1415611693576040518060400160405280601281526020017f566f74696e6753657373696f6e456e64656400000000000000000000000000008152509050611735565b6005808111156116a6576116a5611edc565b5b8260058111156116b9576116b8611edc565b5b14156116fc576040518060400160405280600c81526020017f566f74657354616c6c69656400000000000000000000000000000000000000008152509050611735565b6040518060400160405280601181526020017f5265676973746572696e67566f7465727300000000000000000000000000000081525090505b919050565b600081600001549050919050565b600033905090565b80600360006101000a81548160ff0219169083600581111561177557611774611edc565b5b02179055507f0a97a4ee45751e2abf3e4fc8946939630b11b371ea8ae39ccdc3056e98f5cc3f82826040516117ab92919061249b565b60405180910390a15050565b6001816000016000828254019250508190555050565b60008060009054906101000a900473ffffffffffffffffffffffffffffffffffffffff169050816000806101000a81548173ffffffffffffffffffffffffffffffffffffffff021916908373ffffffffffffffffffffffffffffffffffffffff1602179055508173ffffffffffffffffffffffffffffffffffffffff168173ffffffffffffffffffffffffffffffffffffffff167f8be0079c531659141344cd1fd0a4f28419497f9722a3daafe3b4186f6b6457e060405160405180910390a35050565b82805461189d906121dc565b90600052602060002090601f0160209004810192826118bf5760008555611906565b82601f106118d857805160ff1916838001178555611906565b82800160010185558215611906579182015b828111156119055782518255916020019190600101906118ea565b5b5090506119139190611931565b5090565b604051806040016040528060608152602001600081525090565b5b8082111561194a576000816000905550600101611932565b5090565b6000604051905090565b600080fd5b600080fd5b6000819050919050565b61197581611962565b811461198057600080fd5b50565b6000813590506119928161196c565b92915050565b6000602082840312156119ae576119ad611958565b5b60006119bc84828501611983565b91505092915050565b600081519050919050565b600082825260208201905092915050565b60005b838110156119ff5780820151818401526020810190506119e4565b83811115611a0e576000848401525b50505050565b6000601f19601f8301169050919050565b6000611a30826119c5565b611a3a81856119d0565b9350611a4a8185602086016119e1565b611a5381611a14565b840191505092915050565b611a6781611962565b82525050565b60006040820190508181036000830152611a878185611a25565b9050611a966020830184611a5e565b9392505050565b600080fd5b600080fd5b7f4e487b7100000000000000000000000000000000000000000000000000000000600052604160045260246000fd5b611adf82611a14565b810181811067ffffffffffffffff82111715611afe57611afd611aa7565b5b80604052505050565b6000611b1161194e565b9050611b1d8282611ad6565b919050565b600067ffffffffffffffff821115611b3d57611b3c611aa7565b5b611b4682611a14565b9050602081019050919050565b82818337600083830152505050565b6000611b75611b7084611b22565b611b07565b905082815260208101848484011115611b9157611b90611aa2565b5b611b9c848285611b53565b509392505050565b600082601f830112611bb957611bb8611a9d565b5b8135611bc9848260208601611b62565b91505092915050565b600060208284031215611be857611be7611958565b5b600082013567ffffffffffffffff811115611c0657611c0561195d565b5b611c1284828501611ba4565b91505092915050565b600073ffffffffffffffffffffffffffffffffffffffff82169050919050565b6000611c4682611c1b565b9050919050565b611c5681611c3b565b8114611c6157600080fd5b50565b600081359050611c7381611c4d565b92915050565b600060208284031215611c8f57611c8e611958565b5b6000611c9d84828501611c64565b91505092915050565b60006020820190508181036000830152611cc08184611a25565b905092915050565b611cd181611c3b565b82525050565b6000602082019050611cec6000830184611cc8565b92915050565b600082825260208201905092915050565b6000611d0e826119c5565b611d188185611cf2565b9350611d288185602086016119e1565b611d3181611a14565b840191505092915050565b611d4581611962565b82525050565b60006040830160008301518482036000860152611d688282611d03565b9150506020830151611d7d6020860182611d3c565b508091505092915050565b60006020820190508181036000830152611da28184611d4b565b905092915050565b60008115159050919050565b611dbf81611daa565b82525050565b6000606082019050611dda6000830186611db6565b611de76020830185611db6565b611df46040830184611a5e565b949350505050565b6000602082019050611e116000830184611a5e565b92915050565b600081905092915050565b7f4e6f742061207265676973746572656420766f7465723a200000000000000000600082015250565b6000611e58601883611e17565b9150611e6382611e22565b601882019050919050565b60008160601b9050919050565b6000611e8682611e6e565b9050919050565b6000611e9882611e7b565b9050919050565b611eb0611eab82611c3b565b611e8d565b82525050565b6000611ec182611e4b565b9150611ecd8284611e9f565b60148201915081905092915050565b7f4e487b7100000000000000000000000000000000000000000000000000000000600052602160045260246000fd5b7f5265717569726520000000000000000000000000000000000000000000000000600082015250565b6000611f41600883611e17565b9150611f4c82611f0b565b600882019050919050565b6000611f62826119c5565b611f6c8185611e17565b9350611f7c8185602086016119e1565b80840191505092915050565b7f2073746174757320210000000000000000000000000000000000000000000000600082015250565b6000611fbe600983611e17565b9150611fc982611f88565b600982019050919050565b6000611fdf82611f34565b9150611feb8284611f57565b9150611ff682611fb1565b915081905092915050565b7f50726f706f73616c206e6f7420666f756e642062792074686520676976656e2060008201527f4964202100000000000000000000000000000000000000000000000000000000602082015250565b600061205d6024836119d0565b915061206882612001565b604082019050919050565b6000602082019050818103600083015261208c81612050565b9050919050565b7f416c726561647920766f74656420210000000000000000000000000000000000600082015250565b60006120c9600f836119d0565b91506120d482612093565b602082019050919050565b600060208201905081810360008301526120f8816120bc565b9050919050565b7f4e487b7100000000000000000000000000000000000000000000000000000000600052601160045260246000fd5b600061213982611962565b915061214483611962565b9250827fffffffffffffffffffffffffffffffffffffffffffffffffffffffffffffffff03821115612179576121786120ff565b5b828201905092915050565b60006040820190506121996000830185611cc8565b6121a66020830184611a5e565b9392505050565b7f4e487b7100000000000000000000000000000000000000000000000000000000600052602260045260246000fd5b600060028204905060018216806121f457607f821691505b60208210811415612208576122076121ad565b5b50919050565b7f4f776e61626c653a2063616c6c6572206973206e6f7420746865206f776e6572600082015250565b60006122446020836119d0565b915061224f8261220e565b602082019050919050565b6000602082019050818103600083015261227381612237565b9050919050565b7f41646d696e6973747261746f722063616e6e6f74206265206120766f7465722060008201527f2100000000000000000000000000000000000000000000000000000000000000602082015250565b60006122d66021836119d0565b91506122e18261227a565b604082019050919050565b60006020820190508181036000830152612305816122c9565b9050919050565b7f566f74657220616c726561647920726567697374657265642021000000000000600082015250565b6000612342601a836119d0565b915061234d8261230c565b602082019050919050565b6000602082019050818103600083015261237181612335565b9050919050565b600061238382611962565b91507fffffffffffffffffffffffffffffffffffffffffffffffffffffffffffffffff8214156123b6576123b56120ff565b5b600182019050919050565b7f4f776e61626c653a206e6577206f776e657220697320746865207a65726f206160008201527f6464726573730000000000000000000000000000000000000000000000000000602082015250565b600061241d6026836119d0565b9150612428826123c1565b604082019050919050565b6000602082019050818103600083015261244c81612410565b9050919050565b6006811061246457612463611edc565b5b50565b600081905061247582612453565b919050565b600061248582612467565b9050919050565b6124958161247a565b82525050565b60006040820190506124b0600083018561248c565b6124bd602083018461248c565b939250505056fea264697066735822122043822ad248cd51b343d158577daa2728fcd80e377a1f890e2a2e47b45531964164736f6c634300080b0033",
  "immutableReferences": {},
  "source": "// SPDX-License-Identifier: GPL-3.0\r\npragma solidity ^0.8.11;\r\n\r\nimport \"@openzeppelin/contracts/access/Ownable.sol\";\r\nimport \"@openzeppelin/contracts/utils/Counters.sol\";\r\n\r\ncontract Voting is Ownable {\r\n    using Counters for Counters.Counter;\r\n    Counters.Counter private _proposalCounter;\r\n\r\n    uint public winningProposalId;\r\n    WorkflowStatus private _votingStatus = WorkflowStatus.RegisteringVoters;\r\n    \r\n    struct Voter {\r\n        bool isRegistered;\r\n        bool hasVoted;\r\n        uint votedProposalId;\r\n    }\r\n\r\n    struct Proposal {\r\n        string description;\r\n        uint voteCount;\r\n    }\r\n\r\n    enum WorkflowStatus {\r\n        RegisteringVoters,\r\n        ProposalsRegistrationStarted,\r\n        ProposalsRegistrationEnded,\r\n        VotingSessionStarted,\r\n        VotingSessionEnded,\r\n        VotesTallied\r\n    }\r\n\r\n    event VoterRegistered(address voterAddress); \r\n    event WorkflowStatusChange(WorkflowStatus previousStatus, WorkflowStatus newStatus);\r\n    event ProposalRegistered(uint proposalId);\r\n    event Voted (address voter, uint proposalId);\r\n\r\n    mapping(address => Voter) public voters;\r\n    mapping(uint => Proposal) public proposals;\r\n\r\n    /*\r\n        Modifiers\r\n    */\r\n\r\n    modifier requireStatus(WorkflowStatus _status) {\r\n        require(_votingStatus == _status, string(abi.encodePacked(\"Require \", _getVotingStatusString(_status), \" status !\")));\r\n        _;\r\n    }\r\n\r\n    modifier requireRegisteredVoter() {\r\n        require(voters[msg.sender].isRegistered, string(abi.encodePacked(\"Not a registered voter: \", msg.sender)));\r\n        _;\r\n    }\r\n\r\n    /*\r\n        Getters\r\n    */\r\n\r\n    function getVotingStatus() public view returns (string memory) {\r\n        return _getVotingStatusString(_votingStatus);\r\n    }\r\n\r\n    // Returns a string instead of the uint of the enumeration \r\n    function _getVotingStatusString(WorkflowStatus _status) internal pure returns (string memory) {\r\n        if (_status == WorkflowStatus.ProposalsRegistrationStarted) {\r\n            return \"ProposalsRegistrationStarted\";\r\n        } else if (_status == WorkflowStatus.ProposalsRegistrationEnded) {\r\n            return \"ProposalsRegistrationEnded\";\r\n        } else if (_status == WorkflowStatus.VotingSessionStarted) {\r\n            return \"VotingSessionStarted\";\r\n        } else if (_status == WorkflowStatus.VotingSessionEnded) {\r\n            return \"VotingSessionEnded\";\r\n        } else if (_status == WorkflowStatus.VotesTallied) {\r\n            return \"VotesTallied\";\r\n        } else {\r\n            return \"RegisteringVoters\";\r\n        }\r\n    }\r\n\r\n    function getWinner() public view returns (Proposal memory) {\r\n        return proposals[winningProposalId];\r\n    }\r\n\r\n    function getProposalCount() public view returns (uint) {\r\n        return _proposalCounter.current();\r\n    }\r\n    \r\n    /*\r\n        Set of functions to handle participation, voting proposals and vote\r\n    */\r\n\r\n    // Whitelist voter with his address\r\n    function registerVoter(address _voter) public onlyOwner requireStatus(WorkflowStatus.RegisteringVoters) {\r\n        require(_voter != msg.sender, \"Administrator cannot be a voter !\");\r\n        require(!voters[_voter].isRegistered, \"Voter already registered !\");\r\n        voters[_voter] = Voter(true, false, 0);\r\n        emit VoterRegistered(_voter);\r\n    }\r\n\r\n    // Add new proposal only if voter is whitelisted\r\n    function registerProposal(string memory _proposition) public requireRegisteredVoter requireStatus(WorkflowStatus.ProposalsRegistrationStarted) {\r\n        _proposalCounter.increment();\r\n        proposals[_proposalCounter.current()] = Proposal(_proposition, 0);\r\n        emit ProposalRegistered(_proposalCounter.current());\r\n    }\r\n\r\n    // Voters can vote\r\n    function vote(uint _proposalId) public requireRegisteredVoter requireStatus(WorkflowStatus.VotingSessionStarted) {\r\n        require(_proposalId >= 1 &&  _proposalId <= _proposalCounter.current(), \"Proposal not found by the given Id !\");\r\n        require(!voters[msg.sender].hasVoted, \"Already voted !\");\r\n        proposals[_proposalId].voteCount += 1;\r\n        voters[msg.sender].votedProposalId = _proposalId;\r\n        voters[msg.sender].hasVoted = true;\r\n        emit Voted(msg.sender, _proposalId);\r\n    }\r\n\r\n    // Counts all the votes and publish the result\r\n    function countVotes() public onlyOwner requireStatus(WorkflowStatus.VotingSessionEnded) {\r\n        uint bestVote = 0;\r\n        \r\n        for (uint i=1; i<_proposalCounter.current(); i++) {\r\n            if(proposals[i].voteCount > bestVote){\r\n                winningProposalId = i;\r\n                bestVote = proposals[i].voteCount;\r\n            }\r\n        }\r\n\r\n        _changeWorkflowStatus(WorkflowStatus.VotingSessionEnded, WorkflowStatus.VotesTallied);\r\n    }\r\n\r\n    /*\r\n        Set of function that change the WorkflowStatus state\r\n    */\r\n\r\n    function _changeWorkflowStatus(WorkflowStatus _previous, WorkflowStatus _next) internal {\r\n        _votingStatus = _next;\r\n        emit WorkflowStatusChange(_previous, _next);\r\n    }\r\n\r\n    function startProposalRegistration() public onlyOwner requireStatus(WorkflowStatus.RegisteringVoters) {\r\n        _changeWorkflowStatus(WorkflowStatus.RegisteringVoters, WorkflowStatus.ProposalsRegistrationStarted);\r\n    }\r\n\r\n    function stopProposalRegistration() public onlyOwner requireStatus(WorkflowStatus.ProposalsRegistrationStarted) {\r\n        _changeWorkflowStatus(WorkflowStatus.ProposalsRegistrationStarted, WorkflowStatus.ProposalsRegistrationEnded);\r\n    }\r\n\r\n    function startVotingSession() public onlyOwner requireStatus(WorkflowStatus.ProposalsRegistrationEnded) {\r\n        _changeWorkflowStatus(WorkflowStatus.ProposalsRegistrationEnded, WorkflowStatus.VotingSessionStarted);\r\n    }\r\n\r\n    function stopVotingSession() public onlyOwner requireStatus(WorkflowStatus.VotingSessionStarted) {\r\n        _changeWorkflowStatus(WorkflowStatus.VotingSessionStarted, WorkflowStatus.VotingSessionEnded);\r\n    }\r\n}",
  "sourcePath": "/home/hacker/Documents/Lab/voting/contracts/Voting.sol",
  "compiler": {
    "name": "solc",
    "version": "0.8.11+commit.d7f03943.Emscripten.clang"
  },
  "schemaVersion": "3.4.4",
  "updatedAt": "2022-02-10T14:43:12.234Z",
  "devdoc": {
    "kind": "dev",
    "methods": {
      "owner()": {
        "details": "Returns the address of the current owner."
      },
      "renounceOwnership()": {
        "details": "Leaves the contract without owner. It will not be possible to call `onlyOwner` functions anymore. Can only be called by the current owner. NOTE: Renouncing ownership will leave the contract without an owner, thereby removing any functionality that is only available to the owner."
      },
      "transferOwnership(address)": {
        "details": "Transfers ownership of the contract to a new account (`newOwner`). Can only be called by the current owner."
      }
    },
    "version": 1
  },
  "userdoc": {
    "kind": "user",
    "methods": {},
    "version": 1
  }
}